S0130000546F696C657420646F6F722E73726563CC
S11300000C9434000C9446000C9446000C94460066
S11300100C9446000C9446000C9446000C94460044
S11300200C9446000C9446000C9446000C94460034
S11300300C9446000C9446000C9446000C94460024
S11300400C9446000C94B7000C9446000C944600A3
S11300500C9446000C9446000C9446000C94460004
S11300600C9446000C94460011241FBECFEFD8E038
S1130070DEBFCDBF21E0A0E0B1E001C01D92A13000
S1130080B207E1F70E94A2000C94C6000C94000091
S11300909C01809100016130710551F020F06230C3
S11300A0710599F008952130310511F45D9A10C05D
S11300B02230310521F02330310521F006C05D984E
S11300C080E008955C9A82E008952130310511F4AE
S11300D05C9881E008956130710541F020F0623050
S11300E0710579F015C08130910549F08230910590
S11300F069F08330910529F462E070E009C061E0A1
S113010070E0019729F461E070E002C060E070E003
S1130110CB0108954F9B05C04E9B06C083E090E041
S1130120089582E090E0089581E090E008958CB510
S1130130806C8CBD249A08958AB180638AB95D98D5
S1130140579808950E949C000E9497007894C0E0FC
S1130150D0E00E948A008C01BE010E944800809376
S11301600001BE01C8010E946B00EC01F2CF1F9296
S11301700F920FB60F9211248F93809100018EBDC0
S11301808F910F900FBE0F901F901895F894FFCF8A
S9030000FC
